:0C800000F8B500BFF8BC08BC9E467047F5
:10800C0008B50021044600F0E9F8044B1868C36B6E
:10801C0003B19847204600F06EF800BF04840000BE
:10802C00024B13B1024800F04DB97047000000003C
:10803C00DD82000010B5054C237833B9044B13B125
:10804C000448AFF300800123237010BD5488010055
:10805C00000000001084000008B5034B1BB103495D
:10806C000348AFF3008008BD0000000058880100F1
:10807C0010840000154B002B08BF134B9D46A3F535
:10808C00803A00218B460F461348144A121A00F00E
:10809C005BF80F4B002B00D098470E4B002B00D0F9
:1080AC0098470020002104000D000D48002802D044
:1080BC000C4800F007F900F023F82000290000F02C
:1080CC0013F8FFF79DFF00BF000008000000000040
:1080DC00000000000000000054880100948801009A
:1080EC00D1820000DD82000080B400AF002318466E
:1080FC00BD4680BC704780B483B000AF7860FEE7AB
:10810C0070B50D4E0D4D761BB61006D00024013403
:10811C0055F8043B9847A642F9D1094E094DFFF793
:10812C0069FF761BB61006D00024013455F8043BC9
:10813C009847A642F9D170BD148401001484010043
:10814C001C84010014840100F0B4860743D0541E33
:10815C00002A3ED0CAB2034602E014F1FF3438D3F1
:10816C0003F8012B9D07F8D1032C2BD9CDB245EA8E
:10817C0005250F2C45EA054516D9A4F110073F0932
:10818C0003F1200606EB071603F1100242E9045531
:10819C0042E902551032B242F8D104F00F04013713
:1081AC00032C03EB07130DD91E462246043A032A6F
:1081BC0046F8045BFAD8221F22F00302043213445F
:1081CC0004F003042CB1C9B21C4403F8011B9C42FB
:1081DC00FBD1F0BC704714460346C5E72DE9F04FC0
:1081EC000F46B946344B85B00390186800F094F8EC
:1081FC00324B1B68019303F5A4730293019BD3F8D4
:10820C0048613EB34FF00108DDF808A07468651EA4
:10821C000FD40027013406EB8404B9F1000F20D0F1
:10822C00D4F800314B451CD0013D6B1CA4F1040467
:10823C00F3D1234B73B1D6E90032002A34D1002B91
:10824C0032D03046CAF80030AFF30080DAF8006064
:10825C00002EDBD1184B186805B0BDE8F04F00F0CC
:10826C0063B873682268013BAB420CBF7560276032
:10827C00002AD9D0D6F8881108FA05F30B42D6F8A3
:10828C0004B008D1904773685B45B7D1DAF8003079
:10829C00B342C9D0B2E7D6F88C01D4F880100342AF
:1082AC0007D103989047EEE7B2461E46002EADD19B
:1082BC00D0E708469047E6E75088010004840000A8
:1082CC0000000000002301461A46184600F02EB8A4
:1082DC0038B50A4C0A4D641BA4100AD004F1804333
:1082EC00013B05EB8305013C55F804399847002CFC
:1082FC00F9D1BDE8384000F079B800BF2084010006
:10830C001C840100704700BF704700BF704700BF5E
:10831C00704700BF704700BF704700BF0120704717
:10832C0001207047704700BF704700BF2DE9F8432C
:10833C002B4D0646286898460F469146FFF7ECFFF2
:10834C00284B1C68D4F84831002B3DD05A681F2AA2
:10835C000DDC02F1010C16BB0232C3F804C0286814
:10836C0043F82270FFF7E0FF0020BDE8F8831E4BB6
:10837C007BB34FF4C870AFF30080034648B30020C2
:10838C00D4F848114FF0010CC3E900100246C4F8B0
:10839C004831C3F88801C3F88C01002EDCD00121D0
:1083AC0003EB8204C4F88890D3F888019140084309
:1083BC00022EC3F88801C4F80881CDD1D3F88C0102
:1083CC000143C3F88C11C7E704F5A673C4F8483110
:1083DC00BCE72868FFF7A8FF4FF0FF30C5E700BFE8
:0C83EC0050880100048400000000000024
:0C83F800F8B500BFF8BC08BC9E467047FA
:0484040028840100C7
:0884080078FCFF7F0100000079
:048410000000000068
:020000021000EC
:088414002D80000065800000CE
:04841C00418000009B
:108420000000000028840100000000001487010003
:108430007C870100E48701000000000000000000CC
:10844000000000000000000000000000000000002C
:10845000000000000000000000000000000000001C
:10846000000000000000000000000000000000000C
:1084700000000000000000000000000000000000FC
:1084800000000000000000000000000000000000EC
:1084900000000000000000000000000000000000DC
:1084A00000000000000000000000000000000000CC
:1084B00000000000000000000000000000000000BC
:1084C00000000000000000000000000000000000AC
:1084D00001000000000000000E33CDAB34126DE649
:1084E000ECDE05000B0000000000000000000000B2
:1084F000000000000000000000000000000000007C
:10850000000000000000000000000000000000006B
:10851000000000000000000000000000000000005B
:10852000000000000000000000000000000000004B
:04885000708801002B
:0400000300008081F8
:00000001FF
